:020000040000FA
:08000000803102288731FD2F39
:100BFA00163021009700080038302100990098012A
:100C0A0022009601080024001E151E190D2E0E2E14
:100C1A000A2E0800863176268631863101268631EB
:100C2A008531FD2586310800863123268631240048
:100C3A001E141E18212E222E1E2E080024001E0805
:100C4A001F39031D292E2A2E232E1C192D2E2E2E36
:100C5A00232E0800F0007008240099001C18362E74
:100C6A00372E332E1E1B3A2E3B2E372E8631232645
:100C7A0086310800863119268631413086312F2681
:100C8A008631003086318C268631F3007308F400F1
:100C9A0074080800863119268631403086312F269D
:100CAA008631003086312F268631003086312F2654
:100CBA0086318631082686310800F20086311926E7
:100CCA008631403086312F268631720886312F26AA
:100CDA008631710886312F2686318631082686317B
:100CEA00080022008C018D01FF3021008C00FF30AA
:100CFA008D00FE3023008D001F308C0024008D01F2
:100D0A008C012100951722009D019E010800F10027
:100D1A00710C2400031C9E1203189E169E151C1C9F
:100D2A00972E982E942E1E161908F0007008F200BD
:100D3A001D1386312326863172080800F401F50155
:100D4A00701CA82EA92EAD2E7208F4077308F53D63
:100D5A000130F235F30D890BAE2E0130F136F00C6D
:100D6A00890BB32E70087104031DBC2EBD2EA52E4F
:100D7A007508F1007408F000080020002408220217
:100D8A00F6002508233BF70022082002F00023087A
:100D9A00213BF10026082802F2002708293BF3002C
:100DAA008631A32686317108F9007008F800873168
:100DBA006A2786317608200026070800F600863161
:100DCA0019268631403086312F2686317608F5007D
:100DDA000130F535FF3E031DEE2E7535063E863190
:100DEA002F268631710886312F2686317208863180
:100DFA002F268631730886312F268631740886316C
:100E0A002F26863186310826863108002000AE005A
:100E1A002B08A1002A08A0000030A200A300B430C9
:100E2A00A4000030A5009630A6000030A700F430D8
:100E3A00A8000130A9008631C22687312000AC0003
:100E4A00AD012C08AA002D08AB000030F100F20019
:100E5A002B08F4002A08F3002E088631E32687318E
:100E6A00080086310F26873186314F268731323086
:100E7A002000A0000030A1008731A627873120007A
:100E8A00B001B10120003108AB003008AA000030DF
:100E9A0087310B2787310A302000B0070030B13D77
:100EAA00B43030063104031D5B2F5C2F5E2FB00176
:100EBA00B10152302000AF002930890B622FAF0BED
:100ECA00622F0032472F80310228FB01FC0176088D
:100EDA0077040319712F722FA12FFD01FD0A7E2FAE
:100EEA000130F635F70D890B762F0130FA007A08B2
:100EFA00FD07F71F812F822F752F0130FB35FC0D5F
:100F0A00890B832F77087902031D8D2F76087802C3
:100F1A00031C902F912F962F7608F8027708F93B39
:100F2A007B140130F736F60C890B972F0130FD023E
:100F3A00031DA02FA12F822F7C08F7007B08F60043
:100F4A000800D7302000A5001730A6002108F700B6
:100F5A002008F6002608F9002508F80087316A27D4
:100F6A00873177082000A6007608A5000130A5027F
:100F7A000030A63B2508A2002208A30086313F269E
:100F8A0087312000A2002208A70027087F38A20084
:100F9A002208A4002408A2002208F10000308631A9
:100FAA006226873120002308A2002208F100FE30C1
:100FBA0086316226873120002708A2002208F10024
:100FCA00003086316226873152302000A200293053
:100FDA00890BED2FA20BED2F003220002708A13834
:100FEA00A2002208F100003086316226873108000B
:060FFA0020008731362FB4
:020000040001F9
:04000E00E43FFF1EAE
:00000001FF
