:020000040000FA
:08000000803102288731FD2F39
:100B8200163021009700080070302100990098016A
:100B920022009601080024001E151E19D12DD22D07
:100BA200CE2D08008631342685318531C525853123
:100BB2008531C125853108008531F1258531240033
:100BC2001E141E18E52DE62DE22D08008531F125B3
:100BD200853124009E149E18EF2DF02DEC2D080077
:100BE20024001E081F39031DF72DF82DF12D1C19A5
:100BF200FB2DFC2DF12D0800F00070082400990057
:100C02001C18042E052E012E1E1B082E092E052E41
:100C12008531F125853108008531DD258631803029
:100C22008531FD25863100308531FD258631003044
:100C32008531FD2586318531CC2586310800F200CB
:100C42008531DD25863180308531FD25863172087A
:100C52008531FD25863171088531FD258631853145
:100C6200CC258631080022008C018D01FF30210045
:100C72008C00FF308D00FE3023008D001F308C0071
:100C820024008D018C012100951722009D019E01F7
:100C92000800F100710C2400031C9E1203189E161A
:100CA2009E151C1C552E562E522E1E161908F0008B
:100CB2007008F2001D138531F12586317208080093
:100CC200F401F501701C662E672E6B2E7208F40774
:100CD2007308F53D0130F235F30D890B6C2E0130AE
:100CE200F136F00C890B712E70087104031D7A2EF7
:100CF2007B2E632E7508F1007408F0000800F400E2
:100D02008531DD25863180308531FD2586317408B7
:100D12008531FD2586318531E72586318130853162
:100D2200FD258631013086314A268631F30073086B
:100D3200F5008531CC25863175080800200022088F
:100D42002402F6002308253BF70022082002F000C7
:100D52002308213BF10026082802F2002708293B3C
:100D6200F3008631612686317108F9007008F800B7
:100D7200873115278631200026087607A00027082C
:100D8200773DA1000800F6008531DD2586318030EF
:100D92008531FD2586317608F5000130F535FF3EB7
:100DA200031DCF2E7535063E8531FD25863171082E
:100DB2008531FD25863172088531FD25863173081E
:100DC2008531FD25863174088531FD2586318531D1
:100DD200CC25863108002000AC002B08A1002A088F
:100DE200A0000030A200A300B430A4000030A5008F
:100DF2009630A6000030A700F430A8000130A90008
:100E020086319F26863120002108AB002008AA00E7
:100E12000030F100F2002B08F4002A08F3002C083D
:100E22008631C42686310800FB01FC01760877046E
:100E320003191C2F1D2F4C2FFD01FD0A292F0130F4
:100E4200F635F70D890B212F0130FA007A08FD07DC
:100E5200F71F2C2F2D2F202F0130FB35FC0D890B76
:100E62002E2F77087902031D382F76087802031C8B
:100E72003B2F3C2F412F7608F8027708F93B7B1471
:100E82000130F736F60C890B422F0130FD02031DAB
:100E92004B2F4C2F2D2F7C08F7007B08F600080003
:100EA2008531D3258731CA3023008D0024302400B8
:100EB2008D0013309A0028309D009E019C0106305F
:100EC2002000AE001330AD00AD30890B662FAD0BA4
:100ED200662FAE0B662F003286310D2687313230F7
:100EE2002000A0000030A1008731A4278731200014
:100EF200AF01B00120003008AB002F08AA0000307B
:100F02008631EC2687310A302000AF070030B03D31
:100F120000303002B43003192F02031C912F922F9C
:100F2200942FAF01B00106302000AE001330AD00A7
:100F3200AD30890B9A2FAD0B9A2FAE0B9A2F003240
:100F42007B2F80310228D7302000A5001730A60061
:100F52002108F7002008F6002608F9002508F80005
:100F620087311527873177082000A6007608A5006B
:100F72000130A5020030A63B2508A2002208A300EA
:100F820000308631802687312000A2002208A70087
:100F920027087F391038A2002208A4002408A200E2
:100FA2002208F100003086312026873120002308F4
:100FB200A2002208F100FE3086312026873120006F
:100FC2002708A2002208F10000308631202687314E
:100FD2000D302000A200FB30890BED2FA20BED2F6C
:100FE200003220002708A138A2002208F1000030B8
:0E0FF200863120268731080020008731512FDC
:020000040001F9
:04000E00E43FFF1EAE
:00000001FF
